:020000040000FA
:10000000022590023003FFFFFFFFFF02300BFFFFCE
:10001000FFFFFF023013FFFFFFFFFF02301BFFFF58
:10002000FFFFFF023023FFFFFFFFFF02302BFFFF28
:10003000FFFFFF023033FFFFFFFFFF02303BFFFFF8
:10004000FFFFFF023043FFFFFFFFFF02304BFFFFC8
:10005000FFFFFF023053FFFFFFFFFF02305BFFFF98
:10006000FFFFFF023063FFFFFFFFFF02306BFFFF68
:10007000FFFFFF023073FFFFFFFFFF02307BFFFF38
:10008000FFFFFF023083FFFFFFFFFF02308B87027D
:1000900057414E470048554956322E300004030957
:1000A0000426034400460052006F0062006F007493
:1000B00000200042004C0055006E006F00200042FE
:1000C000006F006F00740022034400460052006F6E
:1000D0000062006F007400200042006F006F007427
:1000E00000200043004400430047239C239C239CA2
:1000F000239C23A42374F71222E19003F6E0F8A3D3
:10010000E0F9E849701E9003F8E05400F8A3E054C9
:10011000FFF9E849700E9003FAE064027004A3E06E
:10012000640060099003E27404F002024C9003F44E
:10013000E024806009146048146062020220900389
:10014000F8E0F8A3E0F9E854FF60089003E27404D3
:10015000F0802A9003EEE060067801790080047850
:100160000079009003FCE8F0A3E9F09003EDE06073
:100170000C9003FCE04402F0A3E04400F0020226ED
:100180009003DBE0640460089003E27404F0800AEA
:100190009003FC7400F0A37400F00202269003F8B0
:1001A000E0F8A3E0F9E8547FFA9003DBE064047020
:1001B00006EAC3940640089003E27404F080679056
:1001C00003F8E0F8A3E0F9E85480602A8A0875098A
:1001D0000074E22508F58274033509F583E06403B1
:1001E0007006780179008004780079009003FCE8BB
:1001F000F0A3E9F080308A0875090074E72508F556
:100200008274033509F583E0640370067801790090
:100210008004780079009003FCE8F0A3E9F0800600
:100220009003E27404F09003E2E06404601E900323
:10023000EF74FCF0A37403F0A37400F09003F27465
:1002400002F0A37400F09003E27401F07F02022434
:100250004774F71222E1E9FE9003FAE0F8A3E0F90F
:10026000E84970149003DBE0640460159003F8E043
:10027000F8A3E0F9E84960099003E27404F002038E
:100280008E9003F4E0F87900E8541FF8E95400F97F
:10029000E860091460301460320203889003F6E0CD
:1002A000F8A3E0F9E854FF640160057900020390C7
:1002B000EE9003EDF0EE60047905800279067A0095
:1002C0001221BE02038E79000203909003F8E0F839
:1002D000A3E0F9E8547FFF9003F6E0F8A3E0F9E823
:1002E00054FF60057900020390EFC3940640099023
:1002F00003E27404F002038EEF90620EF09003F8B4
:10030000E0F8A3E0F9E85480603CEE6004741080EB
:10031000027440906211F0EE600474038002740075
:10032000C0E08F0875090074E22508F58274033572
:1003300009F583D0E0F0EE6004790880027907EFD8
:10034000FA1221BE803AEE6004742080027480901C
:100350006214F0EE6004740380027400C0E08F0841
:1003600075090074E72508F58274033509F583D013
:10037000E0F0EE6004790A80027909EFFA1221BEFA
:1003800090620E7400F080069003E27404F079012C
:100390007F020224477900120251E970031221A062
:1003A000227901120251E970031221AF22C082C0EA
:1003B000839003F8E0F8A3E0F9E849701C9003FA91
:1003C000E0F8A3E0F9E84970109003F6E05480F8F3
:1003D000A3E054FFF9E84960089003E27404F08058
:1003E000389003F6E0F8A3E0F9E8906200F090039B
:1003F000F6E0F8A3E0F9E854FF60109003DBE06456
:100400000270169003DB7403F0800E9003DBE0644F
:100410000370069003DB7402F0D083D0822274F55F
:100420001222E19003F6E0F8A3E0F9E4C9F8E81439
:10043000600C14603D1470030204EC02052A1220C3
:100440000F8A088B09750A809003EFE508F0A3E591
:1004500009F0A3E50AF09003EFE0F9A3E0FAA3E0C6
:10046000FB12250BF879009003F2E8F0A3E9F00203
:1004700006E59003F6E0FAA3E0FB79001220198A62
:10048000088B09750A809003EFE508F0A3E509F0F1
:10049000A3E50AF09003EFE0F9A3E0FAA3E0FBE99B
:1004A0002402F9EA3400FA12250BFC7D009003EFD8
:1004B000E0F9A3E0FAA3E0FBE92403F9EA3400FA47
:1004C00012250BF87900E875F000A4C8AAF075F0C1
:1004D00001A42AFA75F000E9A42AF9EC28F8ED390C
:1004E000F99003F2E8F0A3E9F00206E59003F6E0E4
:1004F000F8A3E0F9E8F91220AF8A088B09750A0021
:100500009003EFE508F0A3E509F0A3E50AF09003F6
:10051000EFE0F9A3E0FAA3E0FB12250BF8790090D5
:1005200003F2E8F0A3E9F00206E59003EF7400F0AF
:10053000A37400F0A37400F07F008F087509009089
:10054000045FC082C08390045DE0F8A3E0F9D0832B
:10055000D082E0C398F50AA3E099F50B7403780AFA
:1005600012259FC3E508950AE509950B400302068D
:10057000E5EFF87900E875F008A4C8AAF075F00076
:10058000A42AFA75F008E9A42AF990045DE028FA93
:10059000A3E0398A82F583E493C0E09003F6E0F8A3
:1005A000A3E0F9E4C9F8D0E06860030206E1EFF8DF
:1005B0007900E875F008A4C8AAF075F000A42AFA3A
:1005C00075F008E9A42AF990045DE028FAA3E0395F
:1005D0008A82F583A3E493FA9003F6E0F8A3E0F9A6
:1005E000E854FF6A60030206E1EFF87900E875F06D
:1005F00008A4C8AAF075F000A42AFA75F008E9A4C6
:100600002AF990045DE028FAA3E0398A82F583A3F1
:10061000A3E493C0E09003F8E0F8A3E0F9E4C9F89C
:10062000D0E06860030206E1EFF87900E875F008B1
:10063000A4C8AAF075F000A42AFA75F008E9A42A63
:10064000F990045DE028FAA3E0398A82F583A3A338
:10065000A3E493FA9003F8E0F8A3E0F9E854FF6A02
:10066000707FEFF87900E875F008A4C8AAF075F07B
:1006700000A42AFA75F008E9A42AF990045DE0289C
:10068000FAA3E0398A82F583A3A3A3A3E493F50830
:10069000740193F509750A809003EFE508F0A3E56E
:1006A00009F0A3E50AF0EFF87900E875F008A4C8AE
:1006B000AAF075F000A42AFA75F008E9A42AF990C6
:1006C000045DE028FAA3E0398A82F583A3A3A3A3FB
:1006D000A3A3E493F8740193F99003F2E8F0A3E97B
:1006E000F00F02053A9003EFE0FCA3E0FDA3E0FE6B
:1006F00079007A007B001225BB70069003E2740437
:10070000F09003E2E0640460319003FAC082C08399
:100710009003F2E0F8A3E0F9D083D082C3E098A37D
:10072000E09950109003FAE0F8A3E0F99003F2E8A2
:10073000F0A3E9F09003E27401F07F04022447740F
:10074000F11222E174FD12255274011225C6EAF05D
:10075000A3EBF074011225C6E0F8A3E0F5838882CC
:10076000A3A3A3A3E4936033900461E0F8A3E0F9AA
:10077000880C890D850C82850D83E493F8740193B0
:10078000F974011225C6E0687003A3E069600CE506
:100790000C2404F50C50DD050D80D98518828519CF
:1007A000837400F074011225C6E0F8A3E0F5838895
:1007B00082A3A3A3A3E493F8851882851983E0C3D9
:1007C0009840030209097A007905121F708A0A8B82
:1007D0000BA80AA90B880E890FE84970030208FCD0
:1007E000850E82850F83A3A3E493540FF509E509D1
:1007F00090620EF0750800850E82850F83A3A3A377
:10080000A3E4932407F50AA3E4933400F50B7403DF
:10081000780A12259FAE0AAF0B850E82850F83A33F
:10082000A3E493A2E750689062117448F0906211BB
:100830007408F0850E82850F83A3A3A3E493540369
:1008400064017007D3E50892E6F508750A01750B97
:1008500000E509780A12257D850C82850D83A3A306
:10086000E493550A6007D3E50892E0F508E508909F
:100870006212F0EE906210F085090A750B0074E2C6
:10088000250AF5827403350BF5837400F0806790B8
:1008900062147490F09062147410F0850E82850FCB
:1008A00083A3A3A3E493540364017007D3E50892E0
:1008B000E6F508750A01750B00E509780A12257D31
:1008C000850C82850D83A3A3A3E493550A6007D307
:1008D000E50892E0F508E508906215F0EE906213E5
:1008E000F085090A750B0074E7250AF58274033553
:1008F0000BF5837400F090620E7400F08518828509
:100900001983E02401F00207A474031224D57F08A0
:10091000022447C082C0839003F6E0F8A3E0F9E820
:1009200049701A9003F8E0F8A3E0F9E849700E90D6
:1009300003FAE064017004A3E0640060089003E23D
:100940007404F0802979DB7A037B00E92401F9EA59
:100950003400FA9003EFE9F0A3EAF0A3EBF0900380
:10096000F27401F0A37400F09003E27401F0D083FC
:10097000D0822274F31222E19003DBE0640260284B
:100980009003F8E0F8A3E0F9E849701C9003FAE05E
:10099000F8A3E0F9E84970109003F6E05400F8A3DA
:1009A000E054FFF9E84960099003E27404F0020A98
:1009B000867A0079011221BE9003F6E0F8A3E0F9EF
:1009C000E854FF7003020A677A009003F6E0F8A388
:1009D000E0F9E8F91220198A0C8B0D850C08850DB9
:1009E00009E508450960789003DB7404F09003F68C
:1009F000E0F8A3E0F9E89003DCF0750A00850882CE
:100A0000850983A3A3A3A3E493F8E50AC398506FD1
:100A1000850A0C750D0074DD250CF5827403350D07
:100A2000F5837400F07A007904121F708A0C8B0D24
:100A3000AE0CAF0D8E828F83A3A3A3E493F8850A37
:100A40000C750D0074DD250CF5827403350DF583EE
:100A5000E06870D1EEFAEFFB12073F050A809E9026
:100A600003E27404F080189003F6E0F8A3E0F9E8DC
:100A70009003DCF09003DB7403F07903121B787AA7
:100A80000079021221BE7F0602244774F61222E189
:100A90009003DBE0640470229003F4E06481701A38
:100AA0009003F6E0F8A3E0F9E849700E9003FAE04D
:100AB00064017004A3E0640060089003E27404F031
:100AC000802F9003F8E024DDF508A3E03403F50956
:100AD000750A009003EFE508F0A3E509F0A3E50A25
:100AE000F09003F27401F0A37400F09003E274013B
:100AF000F07F0302244774F71222E19003DBE064E5
:100B00000470149003F4E06401700C9003FAE0F8B0
:100B1000A3E0F9E84960089003E27404F080739060
:100B200003F6E0F8A3E0F9E8FB9003F8E0F8A3E0AF
:100B3000F9E8FA9003DCE0F91220648A088B09A82E
:100B400008A909E8FEE9FFE84960419003F8E0FAE6
:100B5000A3E0FB79031221BE9003F6E0F8A3E0F9CD
:100B6000E8C0E09003F8E024DDF8A3E03403F9885E
:100B7000828983D0E0F0EEFAEFFB12073F9003F892
:100B8000E0FAA3E0FB79041221BE80069003E27430
:100B900004F07F0202244774F51222E1EAF8EBF92F
:100BA000740B1225C6E0F508A3E0F509ECFEEDFF95
:100BB000E8FAE9FB85080A85090BE50A24FFF50830
:100BC000E50B34FFF509E50A450B60228E828F8321
:100BD000E0C0E08A828B83D0E0F08E828F83A3AE68
:100BE00082AF838A828B83A3AA82AB8380C67F0471
:100BF00002244702133F74F71222E174FF122552B8
:100C00007C017D00AA18AB1979001214E98A088BBF
:100C100009E50845097003020CFA900389E0600FAA
:100C200014601F14604D147003020CBD020CF0859B
:100C30001882851983E064FE70C69003897401F000
:100C400080BE851882851983E0C394FC4008900318
:100C5000897400F080AA9003897402F074009003F4
:100C600087F0900386F0851882851983E02403902D
:100C70000388F0851882851983E0F8900386E06880
:100C8000F0851882851983E0C0E0900387E0F87949
:100C9000009003FEE028FAA3E0398A82F583D0E0D1
:100CA000F0900387E02401F8E8900387F090038830
:100CB000E06870069003897403F0020C00900389C9
:100CC0007400F0900386E0F8851882851983E06847
:100CD000701B9003FEE0F8A3E0F5838882A3E05444
:100CE0001F640D700812101E12128C800F020C006F
:100CF000C2AF75C9AB75C95B80FE7900740112245F
:100D0000D57F0202244774F41222E1EAFEEBFFE9E8
:100D1000FB74406B60030210197900E9C39408402A
:100D2000030210197800E8C394024003020E51E94F
:100D3000F50A750B00E50A75F008A4C50A85F008E8
:100D400075F000A42508F50875F008E50BA4250842
:100D5000F50B8808750900E50A2508F508E50B3547
:100D600009F509EC2508F582ED3509F583E0FAE986
:100D7000F508750900E50875F008A4C50885F00AAE
:100D800075F000A4250AF50A75F008E509A4250AFE
:100D9000F509E5082405F50AE43509F50B88087519
:100DA0000900E50AC39508F508E50B9509F509EC76
:100DB0002508F582ED3509F583E0C0E0E9F50A750F
:100DC0000B00E50A75F008A4C50A85F00875F00067
:100DD000A42508F50875F008E50BA42508F50B888F
:100DE00008750900E50A2508F508E50B3509F50938
:100DF000EC2508F582ED3509F583D0E0F0EAC0E096
:100E0000E9F508750900E50875F008A4C50885F03E
:100E10000A75F000A4250AF50A75F008E509A4256D
:100E20000AF509E5082405F50AE43509F50B8808F3
:100E3000750900E50AC39508F508E50B9509F5095C
:100E4000EC2508F582ED3509F583D0E0F008020DB8
:100E5000267802E8C394044003020F6EE9F50A7590
:100E60000B00E50A75F008A4C50A85F00875F000C6
:100E7000A42508F50875F008E50BA42508F50B88EE
:100E800008750900E50A2508F508E50B3509F50997
:100E9000EC2508F582ED3509F583E0FAE9F50A75E8
:100EA0000B00E50A75F008A4C50A85F00875F00086
:100EB000A42508F50875F008E50BA42508F50B88AE
:100EC00008750900E50A2508F508E50B3509F50957
:100ED000EC2508F582ED3509F583A3A3A3A3E0C0B3
:100EE000E0E9F50A750B00E50A75F008A4C50A8566
:100EF000F00875F000A42508F50875F008E50BA4C6
:100F00002508F50B8808750900E50A2508F508E5A8
:100F10000B3509F509EC2508F582ED3509F583D087
:100F2000E0F0EAC0E0E9F50A750B00E50A75F008A3
:100F3000A4C50A85F00875F000A42508F50875F029
:100F400008E50BA42508F50B8808750900E50A25B6
:100F500008F508E50B3509F509EC2508F582ED35AE
:100F600009F583A3A3A3A3D0E0F008020E537800F1
:100F7000E8C394084003021015880875090074003E
:100F80002508F58274043509F583E0F50CE9F50AC6
:100F9000750B00E50A75F008A4C50A85F00875F020
:100FA00000A42508F50875F008E50BA42508F50B45
:100FB0008808750900E50A2508F508E50B3509F5E7
:100FC00009EC2508F582ED3509F583E0650CC0E0F4
:100FD000E9F50A750B00E50A75F008A4C50A85F065
:100FE0000875F000A42508F50875F008E50BA425A0
:100FF00008F50B8808750900E50A2508F508E50BD2
:101000003509F509EE2508F582EF3509F583D0E0BD
:10101000F008020F7009020D1B7F0502244774F5CA
:101020001222E174FC1225529003FEE0F8A3E0F5D1
:10103000838882A3A3A3E0FA7B009003FEE0F8A3D9
:10104000E0F5838882A3A3A3A3E0F87900E4C8F9BC
:10105000EA28F8EB39F9E82400FEE9340CFF7509B9
:10106000017508007968122525E9700AC2AF75C9B3
:10107000AB75C95B80FE9003FEE0F8A3E0F58388C2
:1010800082A3A3E014601814606D14700302118B26
:1010900014700302124A147003021242021247EE45
:1010A000F8EFF97A007B021223A48A0A8B0BE50A77
:1010B000450B70108E0A8F0B7409780A12259FA9B0
:1010C0000A121F3E79409003FEE02405FCA3E034A1
:1010D00000FD7A8A7B03120D06750A10750B0078E5
:1010E0000A12256C7C8A7D03EEFAEFFB121CFC745D
:1010F000021224D502124A7509439003FEE0F8A3B8
:10110000E0F5838882A3A3A3A3E0C0E09003FEE000
:10111000F8A3E0F5838882A3A3A3A3A3D0E0F09073
:1011200003FEE0F8A3E0F5838882A3A3A3E0C0E078
:101130009003FEE0F8A3E0F5838882A3A3A3A3D0E5
:10114000E0F0750A40750B00780A12256C9003FEDA
:10115000E02406FCA3E03400FDEEF8EFF97A007B12
:10116000021223A48A0A8B0B7402780A12257DAA24
:101170000AAB0B8E0A8F0B7409780A12259FA90AF5
:10118000121C5274021224D502124A750A04750BFD
:1011900000780A12256C74021225D07A907B0079AF
:1011A00006121C5274021224D574021225C6E0F8ED
:1011B000A3E0F9851882851983E0687003A3E069CC
:1011C000605C851882851983E0F8A3E0F974021247
:1011D00025C6E8F0A3E9F085188285198374FFF02D
:1011E000A374FFF0750A01750B00780A12256C7460
:1011F000021225D07A247B0C121CFC74021224D516
:10120000750A04750B00780A12256C74021225D039
:101210007A907B007906121C5274021224D585182C
:1012200082851983E0F8A3E0F974021225C6E0680C
:101230007003A3E06960037508079002847401F0ED
:1012400080087508318003750801E509C0E0900346
:10125000FEE0F8A3E0F5838882D0E0F09003FEE0A2
:10126000F8A3E0F5838882A3A3E0D2E7F0E508C005
:10127000E09003FEE0F8A3E0F5838882A3A3A3D067
:10128000E0F074041224D57F0402244774F512227E
:10129000E17508009003FEE0F8A3E0F5838882E0A2
:1012A0002403FF7E007B00EBC39F5017EBF879000F
:1012B0009003FEE028FAA3E0398A82F583E0620811
:1012C0000B80E4E508C0E0EFF879009003FEE02829
:1012D000FAA3E0398A82F583D0E0F09003FEE0F8CB
:1012E000A3E0F5838882A3A3E0648370149003FED7
:1012F000E0F8A3E0F5838882A3A3A3E070030F7E48
:101300000190028674FEF07968122525E9700AC200
:10131000AF75C9AB75C95B80FE8F0A750B00E50A16
:101320002402FCE4350BFD7A867B02790012154E0F
:101330008A0A8B0BAA0AAB0BEEF97F0402244774CE
:10134000F71222E174FC1225527968122525E97002
:101350000AC2AF75C9AB75C95B80FE750804750913
:1013600000780812256C74021225D07A907B0079DF
:1013700006121C5274021224D5851882851983E046
:10138000F8A3E0F9E8496011851882851983E064C3
:10139000FF7004A3E064FF70047900801F85188249
:1013A000851983E0F8A3E0F974021225C6E068709D
:1013B00003A3E069700479018002790074041224A7
:1013C000D57F02022447A2E8500512222280F7129C
:1013D000158D1216420216CD74F81222E17C007DA2
:1013E000C27E017F009003D2ECF0A3EDF0A3EEF0FB
:1013F000A3EFF09003D67400F09003D77400F09040
:1014000003D87408F01218547AFF7BFF1221DD53C1
:10141000F4FED29043FE017F0102244775E40C22C2
:1014200043E401227A007B00E5E2F87900E8FAE97A
:10143000FBE5E3F87900E4C8F9E84AFAE94BFB2256
:1014400075E2002274F41222E1750A00750C0A7E1E
:10145000007F001213D853FEF343FE0C12141C122B
:101460001420D292C2931214248A088B09AE08AFBA
:1014700009C3EE9450EF94C3403D121440D2F0A241
:101480009230F001B3E433F8D2F0A29230F001B31D
:101490009292D2F0A29330F001B3E433F9D2F0A2E9
:1014A0009330F001B39293900284E0600A74FF25B8
:1014B0000CF8880CE8602D1213C61215DFE9F50B45
:1014C0007402650B60A07401650B700280FEE50B71
:1014D0007094120BF6E99002827400F0900283740B
:1014E00000F080827F0502244774F51222E1890909
:1014F000EAFEEBFF8C0A8D0B900283E0FA7B0090F2
:101500000282E0F87900E8250AF8E9350BF9C3EA28
:1015100098EB9950067A007B00802E780A12256C91
:10152000900282E0F87900740228FC740239FDEE22
:10153000FAEFFB120B9774021224D5850A08900269
:1015400082E02508F0AA0AAB0B7F0402244774F658
:101550001222E1890AEAFEEBFF8C088D0990020154
:10156000E060067A007B00801F780812256CEEFC94
:10157000EFFD7A807B01120B9774021224D5E508E7
:10158000900201F0AA08AB097F03022447A823A90F
:1015900024E85404600F7823E654FBF608E654FF71
:1015A000F618121897A823A924E85410600F78237E
:1015B000E654EFF608E654FFF6181218BDA823A962
:1015C00024E8A2E050187823E654FEF608E654FF1B
:1015D000F6187823E654FDF608E654FFF61822C004
:1015E00082C083900283E0700479028050900202EE
:1015F000E064FE7021900283E0FA7B00900203E039
:10160000F87900E82405F8500109C3EA98EB99A29B
:10161000D265D033500479028023900203E0F87938
:1016200000E82405F8500109900283E0FA7B00EA03
:10163000687002EB697004790080027901D083D070
:10164000822274F71222E17C007D0090620EE0FE9F
:1016500090620E7403F0906214E0A2E05065A2AFB5
:10166000E433FFC2AF906216E0FA7B00EAF8EBF9D0
:10167000906217E0FA8F09EFA2E092AFE849603D6F
:10168000E8FAE9FBEA24FFF8EB34FFF9EA4B602DB6
:10169000906226E0F508E508C0E0900283E075F06E
:1016A0008084E5F0FA7B0074022AF58274023BF52F
:1016B00083D0E0F0900283E02401F080C3906214B4
:1016C0007400F0EE90620EF07F02022447C082C0E8
:1016D0008390620EE0FC90620E7404F0906211E060
:1016E000A2E040637A407B007D00900201E06051FF
:1016F000900200E0F87900748028F582740139F5D1
:1017000083E0906228F0900200E02401F090020053
:10171000E0F8900201E0686010EA24FFF8EB34FF83
:10172000F9E8FAE9FBE84970C7900200E0F8900296
:1017300001E068700C9002007400F09002017400E7
:10174000F09062117401F0EC90620EF0D083D082C0
:101750002253BEFBE59DA2E650FAE5C654804449FB
:10176000F5C6E59E547F644970F853C67FE59EA296
:10177000E740FA53C680E59E547F70FA43BE04905A
:1017800062707408F078CA7903E4C9F8E8F5D57591
:10179000D4CA53F4EC53FEECD2947A507BC31218A3
:1017A000027968122525E970097AE87B031218028C
:1017B00080EFA2945037120BF3E96401702F750883
:1017C00005750900780812256C7C087D047A007B79
:1017D0000A121CFC74021224D57AF47B011218023E
:1017E000023000C2AF75C9AB75C95B80FE79681263
:1017F0002525E960F8121444C2AF75C9AB75C95B01
:1018000080FEEBC313FBEA13FAEAF8EBF9E824FFD6
:10181000FAE934FFFBE849603A00000000000000EC
:1018200000000000000000000000000000000000B8
:1018300000000000000000000000000000000000A8
:101840000000000000000000000000000000000098
:101850000080B622C082C0837A0079011220198AE2
:10186000828B83A3A3A3A3A3A3A3E493A2E6500420
:10187000D2F08002C2F0A2F0E4339003EEF09003C5
:10188000ED7400F090620F7403F090620FE0A2E735
:1018900050F8D083D08222C082C0839003DB7402D0
:1018A000F09003DC7400F09003E27400F07903120E
:1018B0001B78752100752200D083D0822274F51226
:1018C00022E190620EE0F50B90620E7400F09062DF
:1018D00011E0FFEFA2E450219062117480F09003B8
:1018E000E27407F0E5214522600985218285228383
:1018F0001225DD9003E27400F0EFA2E2500C90623A
:10190000117400F09003E27400F09003E2E06402CE
:1019100060030219A3906216E0FE9003EF12248781
:10192000EEF97A207B62121BC674031224D58E084E
:101930007509009003F2C3E09508F0A3E09509F063
:101940008E087509009003EFE0F9A3E0FAA3E0FB2D
:10195000E92508F9EA3509FA9003EFE9F0A3EAF07E
:10196000A3EBF09003F2E0F8A3E0F9E84960047417
:101970004080027448906211F09003F2E0F8A3E016
:10198000F9E8497015E52145226009852182852203
:10199000831225DD9003E27400F0E50B90620EF0F7
:1019A000021B739003E2E0640670098521828522A0
:1019B000831225DD9003E2E06003021AC4EFA2E087
:1019C0004003021AC47508F4750903750A00780803
:1019D00012256879087A207B62121BC674031224D0
:1019E000D57521007522009003F4E0F87900E854E1
:1019F000E0F8E95400F9E8601D24E07003021A964B
:101A000024E0607C24C0604824E07003021AA12412
:101A1000E06078021AAC9003F5E014601C24FE60CC
:101A20001324FE600A24FC601524FE60168019123F
:101A300003AD807E1203A180791203958074120990
:101A400073806F120AF6806A9003E27404F0806279
:101A50009003F5E0600E24FA600F24FE601024FE6F
:101A6000601180141200F5804912041E804412098E
:101A700013803F120A8B803A9003E27404F08032A4
:101A8000752182752221122182802775219175226C
:101A900021122191801C7521D47522201220D4801E
:101AA0001175214575222112214580069003E274AB
:101AB00004F09003E2E064047004746080027440F7
:101AC000906211F09003E2E064016003021B5C7F0E
:101AD000029003F2C3E09420A3E09400501190031D
:101AE000F2E0F8A3E0F9E8FED3EF92E3FF80027E94
:101AF000209003EF122487EEF97A207B62121C0CEF
:101B000074031224D58E087509009003EFE0F9A341
:101B1000E0FAA3E0FBE92508F9EA3509FA9003EFBA
:101B2000E9F0A3EAF0A3EBF08E087509009003F248
:101B3000C3E09508F0A3E09509F0EF906211F0EE94
:101B4000C394205028E52145226009852182852201
:101B5000831225DD9003E27400F080119003E2E02F
:101B6000640570098521828522831225DDE50B90AD
:101B7000620EF07F0402244774F71222E17800E835
:101B8000C39405501AE9C0E0880875090074E3257C
:101B900008F58274033509F583D0E0F00880E07819
:101BA00000E8C39405501AE9C0E08808750900747C
:101BB000E82508F58274033509F583D0E0F0088044
:101BC000E07F0202244774F61222E1EAFCEBFDE911
:101BD000F8740A1225C6E0F508A3E0F509A3E0F5BC
:101BE0000AA908AA09AB0AE8601D8C828D83E0C0AF
:101BF000E0D0E012253CE92401F9EA3400FA74FF50
:101C000028FEEEF8EE70E37F0302244774F61222FA
:101C1000E1EAFCEBFDE9F8740A1225C6E0F508A339
:101C2000E0F509A3E0F50AA908AA09AB0AE8601DD6
:101C300012250BC0E08C828D83D0E0F0E92401F9FD
:101C4000EA3400FA74FF28FEEEF8EE70E37F030238
:101C5000244774F41222E18908740C1225C6E0FEB0
:101C6000A3E0FFE50875F01084E5F0F50A750B00B8
:101C7000E50A75F000A4C50AA8F075F008A428F8D4
:101C800075F000E50BA428F50BEA2400F8EB34808E
:101C9000F9E8250AF8E9350BF9E5C7F50975F010FB
:101CA000E50884F508A2AFE433F50CC2AFE5C754EC
:101CB000F84508F5C78E0A8F0BE50A24FFFEE50BF1
:101CC00034FFFFE50A450B602288828983E0C0E08B
:101CD0008C828D83D0E0F088828983A3A882A98337
:101CE0008C828D83A3AC82AD8380CA8509C7850CA5
:101CF0000AE50CA2E092AF7F0502244774F6122297
:101D0000E1740A1225C6E0FEA3E0FF7508CA750952
:101D100003ECF8EDF9E4C9F8E8C0E085088285092C
:101D200083D0E0F0ECC0E0850882850983A3D0E091
:101D3000F0850882850983A3A37462F085088285F3
:101D40000983A3A3A37473F0850882850983A3A3E1
:101D5000A3A3E0541FF0850882850983A3A3A3A34E
:101D6000E0C0E0850882850983A3A3A3A3D0E0F0A7
:101D700075F004EEA4C0E0850882850983A3A3A3BF
:101D8000A3A3D0E0F0850882850983A3A3A3A3E0E1
:101D900054E0F0EEF8EFF9E875F004A4C885F00A15
:101DA00075F000A4250AF50A75F004E9A4250AF9DE
:101DB000E4C9F8850882850983A3A3A3A3E048F0BA
:101DC000850882850983A3A3A3A3A3A3E0C2E7F0A8
:101DD000850882850983A3A3A3A3A3A3E0C0E0850C
:101DE0000882850983A3A3A3A3A3A3D0E0F0850859
:101DF00082850983A3A3A3A3A3A3E0549FF085082E
:101E000082850983A3A3A3A3A3A3E0C0E0850882DE
:101E1000850983A3A3A3A3A3A3D0E0F085088285AB
:101E20000983A3A3A3A3A3A3E054E0F085088285BC
:101E30000983A3A3A3A3A3A3E04412F0850882858A
:101E40000983A3A3A3A3A3A3A3E0543FF08508821F
:101E5000850983A3A3A3A3A3A3A3E0D2E6F08508E7
:101E600082850983A3A3A3A3A3A3A3E054CFF085F2
:101E70000882850983A3A3A3A3A3A3A3E0C0E0854D
:101E80000882850983A3A3A3A3A3A3A3D0E0F0851D
:101E90000882850983A3A3A3A3A3A3A3E0C2E3F0BD
:101EA000850882850983A3A3A3A3A3A3A3E0C0E01D
:101EB000850882850983A3A3A3A3A3A3A3D0E0F0ED
:101EC000850882850983A3A3A3A3A3A3A3E0C2E2F9
:101ED000F0850882850983A3A3A3A3A3A3A3E0C0DD
:101EE000E0850882850983A3A3A3A3A3A3A3D0E0CD
:101EF000F0850882850983A3A3A3A3A3A3A3E05429
:101F0000FCF0850882850983A3A3A3A3A3A3A3E070
:101F1000D2E1F053D1FE75D601EA906271F0EAF891
:101F2000EBF9E4C9F8E8906272F0906270E0D2E1F7
:101F3000F0906270E0A2E740F87F03022447C0827D
:101F4000C08375F002E9A4906272F0906270E0D2F2
:101F5000E0F0D083D08222C082C083900459E0F8A0
:101F6000A3E0F99003D9E8F0A3E9F0D083D082226E
:101F7000C082C083E9FCEAFD7A007B009003D9E0CF
:101F8000F8A3E0F990045BE0687003A3E069607A6D
:101F90009003D9E0F8A3E0F5838882A3E4936C7002
:101FA000309003D9E0F8A3E0F9E8FAE9FB9003D90F
:101FB000E0F8A3E0F5838882E493F879009003D9F0
:101FC000E028F8A3E039F99003D9E8F0A3E9F0801C
:101FD000399003D9E0F8A3E0F5838882A3E4936DF8
:101FE0007003ED70259003D9E0F8A3E0F5838882B3
:101FF000E493F879009003D9E028F8A3E039F99048
:1020000003D9E8F0A3E9F0021F7CD083D08222122A
:102010001F577A007901021F7074F51222E18908B6
:102020008A09121F577A007902121F708A0A8B0BD5
:10203000A80AA90BE8FEE9FFE849601FE50860115E
:102040008E828F83A3A3A3A3A3E493650870D68095
:102050000AA80974FF28F509E870CAEEFAEFFB7FB9
:102060000402244774F41222E189088A098B0C7A4D
:1020700000A9081220197A027904121F708A0A8BAB
:102080000BA80AA90BE8FEE9FFE84960198E828FC8
:1020900083A3A3E493650970DD8E828F83A3A3A33A
:1020A000E493650C70D0EEFAEFFB7F050224477ACB
:1020B000007B00E9600A14600C14600E14601022AA
:1020C0007A0D7B04227A117B04227A377B04227AF0
:1020D000007B0022C082C0839003F5E06422702C54
:1020E0009003E2E0705A9003F6E0F8A3E0F9E849C3
:1020F000600AD2929002857401F08008C292900228
:10210000857400F09003E27402F080349003F5E0EF
:10211000642070269003E2E070269003EF74D2F002
:10212000A37403F0A37400F09003F27407F0A37497
:1021300000F09003E27402F080069003E27404F071
:10214000D083D08222C082C0839003F5E0642170E6
:10215000269003E2E070269003EF74D2F0A374039C
:10216000F0A37400F09003F27407F0A37400F090F1
:1021700003E27401F080069003E27404F0D083D08F
:102180008222C082C0839003E27404F0D083D082A4
:1021900022C082C0839003E27404F0D083D08222F4
:1021A000C082C0839003E27404F0D083D08222C046
:1021B00082C0839003E27404F0D083D08222E914B9
:1021C000601914601614601314601014600D14600C
:1021D0000A14600714600414600114222274F712B8
:1021E00022E17523007524007525008A268B27EAD5
:1021F00090620BF08A088B097404780812259FE519
:1022000008906207F08A088B097409780812259FE4
:10221000E508543E906209F0758B00C2E87F020227
:10222000244774F71222E1E59DA2E650FA90620677
:10223000E0FEEEA2E25038A826A927E890620BF053
:102240008526088527097404780812259FE50890DB
:102250006207F08526088527097409780812259FEA
:10226000E508543E906209F0906201E0D2E0F08E01
:10227000087509007823E50846F608E50946F618CA
:10228000906202E0F5087509007404780812257D53
:102290007823E50846F608E50946F618906204E05A
:1022A000F5087509007409780812257D7823E5087A
:1022B00046F608E50946F618EEA2E050037525013A
:1022C00074065E6003752500E58BA2E55006758BEC
:1022D000DF7525001221DC758B00C2E87F02022425
:1022E000472518C582C0E0E51934FFC583C0E0E585
:1022F00018C3958224F910AF088583198582188048
:1023000008858319858218D2AFCEF0A3E520F0A30B
:102310007808E608F0A3DEFAEFF0A3E58124FBF8E5
:10232000E608F0A3E608F0A30808E608F0A3E6082C
:10233000F0A315811581D0E0FED0E0F8158115815C
:10234000E8C0E0EEC0E022120100020200002041DD
:1023500023430009000102030109024300020100B6
:102360008019090400000102020100052400100187
:1023700004240202052406000105240100010705CA
:10238000820340004009040100020A000000070522
:10239000840240000107050302400001622300009F
:1023A00085230000B90010BB0008E88AF084F8AA71
:1023B000F022E4FBC8FA22EB70227B10C833C8C9B4
:1023C00033C9335007C39AC3DBF280069A50012AFF
:1023D000DBEAC833F4C8C933F4C9FA2275F008E45B
:1023E000C833C8C933C933C99AC99B5004C92AC95B
:1023F0003BD5F0ECFBC833F4C8E4C9FA22E47921F8
:102400007807B800028004F709D8FCE490018078CE
:102410007F79038002F0A3D8FCD9FA7AFE7B03907F
:10242000008E786879018015E493A3AD82AE838A2B
:10243000828B83F0A3AA82AB838D828E83D8E9D965
:10244000E71217511225D8851983851882E0A3FE5B
:10245000E0A3F5207808E0A3F608DFFAE0A3FFE0A8
:10246000A3C0E0E0A3C0E0E0A3C0E0E0A3C0E010B0
:10247000AF0885821885831980088582188583199D
:10248000D2AFD083D0822274038000CCC0E0EDC0F4
:10249000E0E518C39CCCAD1950011D10AF068C1897
:1024A0008D1980068C188D19D2AF1224B4D0E0FD9E
:1024B000D0E0FC22CAC0E0E0A3C582CCC582C583BF
:1024C000CDC583F0A3C582CCC582C583CDC583DAD3
:1024D000E6D0E0CA2200C0D0251810AF08F5185089
:1024E0000C05198008F51850020519D2AFD0D0227A
:1024F0002518F58210AF08F518400C15198008F55D
:102500001840021519D2AF85198322BB0102E722B8
:10251000C082C08389828A83BB0003E08002E49387
:10252000D083D08222E9F875B60FE5B4A2E750FA5D
:10253000E8C395BB5003790122790022BB000EC08D
:1025400082C0838A838982F0D083D08222BB01013A
:10255000F722251810AF08F518400C15198008F55A
:102560001840021519D2AF2274038004740280004F
:10257000C0E0F4041224F0D0E01225AE2270042250
:10258000600D18C6C333C608C633C6D5E0F418229A
:1025900075D00075813F7518807519010223FD60A3
:1025A0000C08C6C313C618C613C6D5E0F422CAC0A9
:1025B000E0E6F0A308DAFAD0E0FA22E96C7006EA65
:1025C0006D7002EB6E222518F582E43519F5832231
:1025D0002518FCE43519FD2200000080FBE473FFA0
:1025E000FFFFFFFFFFFFFFFFFFFFFFFFFFFFFFFFFB
:1025F000FFFFFFFFFFFFFFFFFFFFFFFFFFFFFFFFEB
:10260000FFFFFFFFFFFFFFFFFFFFFFFFFFFFFFFFDA
:10261000FFFFFFFFFFFFFFFFFFFFFFFFFFFFFFFFCA
:040000050000259042
:00000001FF
